{
  "_format": "hh-sol-artifact-1",
  "contractName": "Drive",
  "sourceName": "contracts/Drive.sol",
  "abi": [
    {
      "inputs": [
        {
          "internalType": "address",
          "name": "_user",
          "type": "address"
        },
        {
          "internalType": "string",
          "name": "_url",
          "type": "string"
        }
      ],
      "name": "add",
      "outputs": [],
      "stateMutability": "nonpayable",
      "type": "function"
    },
    {
      "inputs": [
        {
          "internalType": "address",
          "name": "_user",
          "type": "address"
        }
      ],
      "name": "allow",
      "outputs": [],
      "stateMutability": "nonpayable",
      "type": "function"
    },
    {
      "inputs": [
        {
          "internalType": "address",
          "name": "_user",
          "type": "address"
        }
      ],
      "name": "disAllow",
      "outputs": [],
      "stateMutability": "nonpayable",
      "type": "function"
    },
    {
      "inputs": [
        {
          "internalType": "address",
          "name": "_user",
          "type": "address"
        }
      ],
      "name": "display",
      "outputs": [
        {
          "internalType": "string[]",
          "name": "",
          "type": "string[]"
        }
      ],
      "stateMutability": "view",
      "type": "function"
    },
    {
      "inputs": [],
      "name": "viewAccess",
      "outputs": [
        {
          "components": [
            {
              "internalType": "address",
              "name": "user",
              "type": "address"
            },
            {
              "internalType": "bool",
              "name": "flag",
              "type": "bool"
            }
          ],
          "internalType": "struct Drive.Access[]",
          "name": "",
          "type": "tuple[]"
        }
      ],
      "stateMutability": "view",
      "type": "function"
    }
  ],
  "bytecode": "0x608060405234801561001057600080fd5b5061138a806100206000396000f3fe608060405234801561001057600080fd5b50600436106100575760003560e01c806336d6da551461005c57806384799b0d14610078578063cf8aacdd14610096578063eb39113f146100b2578063ff9913e8146100e2575b600080fd5b61007660048036038101906100719190610be6565b6100fe565b005b61008061017d565b60405161008d9190610d4e565b60405180910390f35b6100b060048036038101906100ab9190610d70565b610286565b005b6100cc60048036038101906100c79190610d70565b6104ac565b6040516100d99190610eef565b60405180910390f35b6100fc60048036038101906100f79190610d70565b6106c9565b005b6000808473ffffffffffffffffffffffffffffffffffffffff1673ffffffffffffffffffffffffffffffffffffffff168152602001908152602001600020828290918060018154018082558091505060019003906000526020600020016000909192909192909192909192509182610177929190611161565b50505050565b6060600160003373ffffffffffffffffffffffffffffffffffffffff1673ffffffffffffffffffffffffffffffffffffffff168152602001908152602001600020805480602002602001604051908101604052809291908181526020016000905b8282101561027d578382906000526020600020016040518060400160405290816000820160009054906101000a900473ffffffffffffffffffffffffffffffffffffffff1673ffffffffffffffffffffffffffffffffffffffff1673ffffffffffffffffffffffffffffffffffffffff1681526020016000820160149054906101000a900460ff161515151581525050815260200190600101906101de565b50505050905090565b6000600260003373ffffffffffffffffffffffffffffffffffffffff1673ffffffffffffffffffffffffffffffffffffffff16815260200190815260200160002060008373ffffffffffffffffffffffffffffffffffffffff1673ffffffffffffffffffffffffffffffffffffffff16815260200190815260200160002060006101000a81548160ff02191690831515021790555060005b600160003373ffffffffffffffffffffffffffffffffffffffff1673ffffffffffffffffffffffffffffffffffffffff168152602001908152602001600020805490508110156104a8578173ffffffffffffffffffffffffffffffffffffffff16600160003373ffffffffffffffffffffffffffffffffffffffff1673ffffffffffffffffffffffffffffffffffffffff16815260200190815260200160002082815481106103d0576103cf611231565b5b9060005260206000200160000160009054906101000a900473ffffffffffffffffffffffffffffffffffffffff1673ffffffffffffffffffffffffffffffffffffffff1603610495576000600160003373ffffffffffffffffffffffffffffffffffffffff1673ffffffffffffffffffffffffffffffffffffffff168152602001908152602001600020828154811061046c5761046b611231565b5b9060005260206000200160000160146101000a81548160ff0219169083151502179055506104a8565b80806104a09061128f565b91505061031e565b5050565b60603373ffffffffffffffffffffffffffffffffffffffff168273ffffffffffffffffffffffffffffffffffffffff161480610575575060011515600260008473ffffffffffffffffffffffffffffffffffffffff1673ffffffffffffffffffffffffffffffffffffffff16815260200190815260200160002060003373ffffffffffffffffffffffffffffffffffffffff1673ffffffffffffffffffffffffffffffffffffffff16815260200190815260200160002060009054906101000a900460ff161515145b6105b4576040517f08c379a00000000000000000000000000000000000000000000000000000000081526004016105ab90611334565b60405180910390fd5b6000808373ffffffffffffffffffffffffffffffffffffffff1673ffffffffffffffffffffffffffffffffffffffff168152602001908152602001600020805480602002602001604051908101604052809291908181526020016000905b828210156106be57838290600052602060002001805461063190610f7a565b80601f016020809104026020016040519081016040528092919081815260200182805461065d90610f7a565b80156106aa5780601f1061067f576101008083540402835291602001916106aa565b820191906000526020600020905b81548152906001019060200180831161068d57829003601f168201915b505050505081526020019060010190610612565b505050509050919050565b6001600260003373ffffffffffffffffffffffffffffffffffffffff1673ffffffffffffffffffffffffffffffffffffffff16815260200190815260200160002060008373ffffffffffffffffffffffffffffffffffffffff1673ffffffffffffffffffffffffffffffffffffffff16815260200190815260200160002060006101000a81548160ff02191690831515021790555060011515600360003373ffffffffffffffffffffffffffffffffffffffff1673ffffffffffffffffffffffffffffffffffffffff16815260200190815260200160002060008373ffffffffffffffffffffffffffffffffffffffff1673ffffffffffffffffffffffffffffffffffffffff16815260200190815260200160002060009054906101000a900460ff161515036109855760005b600160003373ffffffffffffffffffffffffffffffffffffffff1673ffffffffffffffffffffffffffffffffffffffff1681526020019081526020016000208054905081101561097f578173ffffffffffffffffffffffffffffffffffffffff16600160003373ffffffffffffffffffffffffffffffffffffffff1673ffffffffffffffffffffffffffffffffffffffff16815260200190815260200160002082815481106108a8576108a7611231565b5b9060005260206000200160000160009054906101000a900473ffffffffffffffffffffffffffffffffffffffff1673ffffffffffffffffffffffffffffffffffffffff160361096c5760018060003373ffffffffffffffffffffffffffffffffffffffff1673ffffffffffffffffffffffffffffffffffffffff168152602001908152602001600020828154811061094357610942611231565b5b9060005260206000200160000160146101000a81548160ff02191690831515021790555061097f565b80806109779061128f565b9150506107f6565b50610b16565b600160003373ffffffffffffffffffffffffffffffffffffffff1673ffffffffffffffffffffffffffffffffffffffff16815260200190815260200160002060405180604001604052808373ffffffffffffffffffffffffffffffffffffffff168152602001600115158152509080600181540180825580915050600190039060005260206000200160009091909190915060008201518160000160006101000a81548173ffffffffffffffffffffffffffffffffffffffff021916908373ffffffffffffffffffffffffffffffffffffffff16021790555060208201518160000160146101000a81548160ff02191690831515021790555050506001600360003373ffffffffffffffffffffffffffffffffffffffff1673ffffffffffffffffffffffffffffffffffffffff16815260200190815260200160002060008373ffffffffffffffffffffffffffffffffffffffff1673ffffffffffffffffffffffffffffffffffffffff16815260200190815260200160002060006101000a81548160ff0219169083151502179055505b50565b600080fd5b600080fd5b600073ffffffffffffffffffffffffffffffffffffffff82169050919050565b6000610b4e82610b23565b9050919050565b610b5e81610b43565b8114610b6957600080fd5b50565b600081359050610b7b81610b55565b92915050565b600080fd5b600080fd5b600080fd5b60008083601f840112610ba657610ba5610b81565b5b8235905067ffffffffffffffff811115610bc357610bc2610b86565b5b602083019150836001820283011115610bdf57610bde610b8b565b5b9250929050565b600080600060408486031215610bff57610bfe610b19565b5b6000610c0d86828701610b6c565b935050602084013567ffffffffffffffff811115610c2e57610c2d610b1e565b5b610c3a86828701610b90565b92509250509250925092565b600081519050919050565b600082825260208201905092915050565b6000819050602082019050919050565b610c7b81610b43565b82525050565b60008115159050919050565b610c9681610c81565b82525050565b604082016000820151610cb26000850182610c72565b506020820151610cc56020850182610c8d565b50505050565b6000610cd78383610c9c565b60408301905092915050565b6000602082019050919050565b6000610cfb82610c46565b610d058185610c51565b9350610d1083610c62565b8060005b83811015610d41578151610d288882610ccb565b9750610d3383610ce3565b925050600181019050610d14565b5085935050505092915050565b60006020820190508181036000830152610d688184610cf0565b905092915050565b600060208284031215610d8657610d85610b19565b5b6000610d9484828501610b6c565b91505092915050565b600081519050919050565b600082825260208201905092915050565b6000819050602082019050919050565b600081519050919050565b600082825260208201905092915050565b60005b83811015610e03578082015181840152602081019050610de8565b60008484015250505050565b6000601f19601f8301169050919050565b6000610e2b82610dc9565b610e358185610dd4565b9350610e45818560208601610de5565b610e4e81610e0f565b840191505092915050565b6000610e658383610e20565b905092915050565b6000602082019050919050565b6000610e8582610d9d565b610e8f8185610da8565b935083602082028501610ea185610db9565b8060005b85811015610edd5784840389528151610ebe8582610e59565b9450610ec983610e6d565b925060208a01995050600181019050610ea5565b50829750879550505050505092915050565b60006020820190508181036000830152610f098184610e7a565b905092915050565b600082905092915050565b7f4e487b7100000000000000000000000000000000000000000000000000000000600052604160045260246000fd5b7f4e487b7100000000000000000000000000000000000000000000000000000000600052602260045260246000fd5b60006002820490506001821680610f9257607f821691505b602082108103610fa557610fa4610f4b565b5b50919050565b60008190508160005260206000209050919050565b60006020601f8301049050919050565b600082821b905092915050565b60006008830261100d7fffffffffffffffffffffffffffffffffffffffffffffffffffffffffffffffff82610fd0565b6110178683610fd0565b95508019841693508086168417925050509392505050565b6000819050919050565b6000819050919050565b600061105e6110596110548461102f565b611039565b61102f565b9050919050565b6000819050919050565b61107883611043565b61108c61108482611065565b848454610fdd565b825550505050565b600090565b6110a1611094565b6110ac81848461106f565b505050565b5b818110156110d0576110c5600082611099565b6001810190506110b2565b5050565b601f821115611115576110e681610fab565b6110ef84610fc0565b810160208510156110fe578190505b61111261110a85610fc0565b8301826110b1565b50505b505050565b600082821c905092915050565b60006111386000198460080261111a565b1980831691505092915050565b60006111518383611127565b9150826002028217905092915050565b61116b8383610f11565b67ffffffffffffffff81111561118457611183610f1c565b5b61118e8254610f7a565b6111998282856110d4565b6000601f8311600181146111c857600084156111b6578287013590505b6111c08582611145565b865550611228565b601f1984166111d686610fab565b60005b828110156111fe578489013582556001820191506020850194506020810190506111d9565b8683101561121b5784890135611217601f891682611127565b8355505b6001600288020188555050505b50505050505050565b7f4e487b7100000000000000000000000000000000000000000000000000000000600052603260045260246000fd5b7f4e487b7100000000000000000000000000000000000000000000000000000000600052601160045260246000fd5b600061129a8261102f565b91507fffffffffffffffffffffffffffffffffffffffffffffffffffffffffffffffff82036112cc576112cb611260565b5b600182019050919050565b600082825260208201905092915050565b7f596f7520646f6e27742068617665206163636573730000000000000000000000600082015250565b600061131e6015836112d7565b9150611329826112e8565b602082019050919050565b6000602082019050818103600083015261134d81611311565b905091905056fea26469706673582212205a735b5de26912df965e0f5defd9616999b8b1a8e244bc27e58367e38cdb859764736f6c63430008130033",
  "linkReferences": {},
  "deployedLinkReferences": {}
}